:100000000C942A000C9434000C9434000C943400AA
:100010000C9434000C9434000C9434000C94340090
:100020000C9434000C9434000C9434000C94340080
:100030000C9434000C9434000C9434000C94340070
:100040000C9434000C9434000C9434000C94340060
:100050000C94340011241FBECFE5D8E0DEBFCDBF25
:100060000E9484000C94A1000C9400000097E1F021
:1000700024F4863A9F4F41F008958A35910521F185
:10008000843B910589F1089588E085BB89EF90E074
:100090000197F1F700C0000015BA8DE892E10197D1
:1000A000F1F700C00000089588E085BB86E791E085
:1000B0000197F1F700C0000015BA80E192E10197C5
:1000C000F1F700C00000089588E085BB83EF91E060
:1000D0000197F1F700C0000015BA83E991E101979B
:1000E000F1F700C00000089588E085BB80E792E04A
:1000F0000197F1F700C0000015BA86E191E1019780
:10010000F1F700C0000008958FE184BB8AE590E01C
:100110000E9436002FE38DE093E021508040904014
:10012000E1F700C0000080E090E00E9436002FE37D
:100130008DE093E0215080409040E1F700C0000046
:06014000E5CFF894FFCFAB
:00000001FF
