S018000044696E757368615F49725F536572766F2E73726563B8
S11300000C942A000C943F000C943F000C943F0085
S11300100C943F000C943F000C943F000C943F0060
S11300200C943F000C943F000C943F000C943F0050
S11300300C943F000C943F000C943F000C943F0040
S11300400C943F000C943F000C943F000C943F0030
S11300500C943F0011241FBECFE5D8E0DEBFCDBF16
S113006010E0A0E6B0E0E2E4F2E002C005900D92F8
S1130070AE36B107D9F70E94F4000C941F010C941A
S1130080000098B39F70282F207F922B98BB98B3C1
S11300909E7F98BB98B3926098BB000098B39D7FF5
S11300A098BB32E43A95F1F700C028B330E1839F5E
S11300B0C0011124922F9F70892B88BB88B3826062
S11300C088BB000088B38D7F88BB83EF91E00197E4
S11300D0F1F700C00000089598B39F70282F207F87
S11300E0922B98BB98B3916098BB98B3926098BBDD
S11300F0000098B39D7F98BB32E43A95F1F700C0B5
S113010028B330E1839FC0011124922F9F70892B63
S113011088BB88B3826088BB000088B38D7F88BBAE
S113012083EF91E00197F1F700C0000008958FEF8D
S113013087BB87E893E10197F1F700C0000082E0F4
S11301400E94410088E20E9441008CE00E9441002C
S113015086E00E94410081E00E94410083EF91E02B
S11301600197F1F700C0000008950F931F93CF93F8
S1130170DF938C01C0E0D0E003C00E946C002196A4
S1130180F801EC0FFD1F80818111F7CFDF91CF9132
S11301901F910F910895CF93DF93EA01811108C055
S11301A0603130F4862F8F7080680E94410009C04E
S11301B0813039F4603128F4862F8F70806C0E946E
S11301C04100CE010E94B500DF91CF91089581E0F6
S11301D00E94410083EF91E00197F1F700C0000015
S11301E080E80E94410008950E94970084B38160D2
S11301F084BBC89912C00E94E70040E650E060E06A
S113020080E00E94CB002FE38DE093E021508040FA
S11302109040E1F700C00000ECCF0E94E70046E602
S113022050E060E080E00E94CB002FE38DE093E09B
S1130230215080409040E1F700C00000DACFF894EC
S1050240FFCFEA
S11102424952204F4E004952204F46460000BC
S9030000FC
